S018000073696D706C655F6D6174685F67616D652E7372656380
S11300000C942A000C9447000C9447000C9447006D
S11300100C9447000C9447000C9447000C94470040
S11300200C9447000C9447000C9490050C944700E2
S11300300C9447000C9447000C9447000C94470020
S11300400C9447000C9447000C9447000C94470010
S11300500C94470011241FBECFE5D8E0DEBFCDBF0E
S113006010E0A0E6B0E0E8EDFBE002C005900D92E0
S1130070AA3BB107D9F710E0AAEBB0E001C01D928A
S1130080AC3BB107E1F70E947D040C94EA050C94A3
S11300900000823451F1833420F4813409F07BC0B0
S11300A007C0833409F43EC0843409F074C057C0D7
S11300B0413069F42AB381E090E0AC0102C0440FFE
S11300C0551F6A95E2F7BA01622B6ABB08952AB3F9
S11300D081E090E0AC0102C0440F551F6A95E2F73D
S11300E0BA01609562236ABB0895413069F427B36D
S11300F081E090E0AC0102C0440F551F6A95E2F71D
S1130100BA01622B67BB089527B381E090E0AC018C
S113011002C0440F551F6A95E2F7BA016095622345
S113012067BB0895413069F424B381E090E0AC01E9
S113013002C0440F551F6A95E2F7BA01622B64BBF3
S1130140089524B381E090E0AC0102C0440F551F30
S11301506A95E2F7BA016095622364BB0895413061
S113016069F421B381E090E0AC0102C0440F551F53
S11301706A95E2F7BA01622B61BB089521B381E06D
S113018090E0AC0102C0440F551F6A95E2F7BA0132
S11301906095622361BB0895823451F1833420F465
S11301A0813409F07BC007C0833409F43EC0843431
S11301B009F074C057C0413069F42BB381E090E07A
S11301C0AC0102C0440F551F6A95E2F7BA01622BD5
S11301D06BBB08952BB381E090E0AC0102C0440FE7
S11301E0551F6A95E2F7BA01609562236BBB0895C7
S11301F0413069F428B381E090E0AC0102C0440FBF
S1130200551F6A95E2F7BA01622B68BB089528B3BB
S113021081E090E0AC0102C0440F551F6A95E2F7FB
S1130220BA016095622368BB0895413069F425B32F
S113023081E090E0AC0102C0440F551F6A95E2F7DB
S1130240BA01622B65BB089525B381E090E0AC014F
S113025002C0440F551F6A95E2F7BA016095622304
S113026065BB0895413069F422B381E090E0AC01AC
S113027002C0440F551F6A95E2F7BA01622B62BBB4
S1130280089522B381E090E0AC0102C0440F551FF1
S11302906A95E2F7BA016095622362BB08958234DD
S11302A0F1F0833420F4813409F04FC006C0833464
S11302B041F1843409F049C036C029B381E090E0AB
S11302C0062E02C0880F991F0A94E2F730E08223B9
S11302D0932302C0959587956A95E2F7089526B30E
S11302E081E090E0062E02C0880F991F0A94E2F77D
S11302F030E08223932302C0959587956A95E2F7AF
S1130300089523B381E090E0062E02C0880F991F60
S11303100A94E2F730E08223932302C095958795EF
S11303206A95E2F7089520B381E090E0062E02C0BA
S1130330880F991F0A94E2F730E08223932302C0C6
S1130340959587956A95E2F7089580E0089582343B
S1130350B9F0833418F48134C9F505C08334E9F065
S11303608434A1F527C02BB381E090E0AC0102C036
S1130370440F551F6A95E2F7BA0162276BBB0895D3
S113038028B381E090E0AC0102C0440F551F6A9588
S1130390E2F7BA01622768BB089525B381E090E0D3
S11303A0AC0102C0440F551F6A95E2F7BA016227F7
S11303B065BB089522B381E090E0AC0102C0440F14
S11303C0551F6A95E2F7BA01622762BB0895823429
S11303D061F0833418F4813469F405C0833439F04E
S11303E0843441F406C06ABB089567BB089564BBB6
S11303F0089561BB0895823461F0833418F4813424
S113040069F405C0833439F0843441F406C06BBB0D
S1130410089568BB089565BB089562BB089582344E
S113042061F0833418F4813471F405C0833439F0F5
S1130430843449F406C089B3089586B3089583B318
S1130440089580B3089580E00895823451F183348F
S113045020F4813409F07BC007C0833409F43EC022
S1130460843409F074C057C0413069F42BB381E07F
S113047090E0AC0102C0440F551F6A95E2F7BA013F
S1130480622B6BBB08952BB381E090E0AC0102C0FA
S1130490440F551F6A95E2F7BA01609562236BBB5E
S11304A00895413069F428B381E090E0AC0102C0C2
S11304B0440F551F6A95E2F7BA01622B68BB089591
S11304C028B381E090E0AC0102C0440F551F6A9547
S11304D0E2F7BA016095622368BB0895413069F47C
S11304E025B381E090E0AC0102C0440F551F6A952A
S11304F0E2F7BA01622B65BB089525B381E090E071
S1130500AC0102C0440F551F6A95E2F7BA01609529
S1130510622365BB0895413069F422B381E090E021
S1130520AC0102C0440F551F6A95E2F7BA01622B71
S113053062BB089522B381E090E0AC0102C0440F95
S1130540551F6A95E2F7BA016095622362BB08956C
S11305506F70823481F0833418F48134F1F405C06F
S1130560833479F08434C9F412C08BB3807F8BBB9D
S11305708BB3862B8BBB88B3807F88BB88B3862BD9
S113058088BB85B3807F85BB85B3862B85BB82B34F
S1130590807F82BB82B3682B62BB08956295607FC3
S11305A0823481F0833418F48134F1F405C0833447
S11305B079F08434C9F412C08BB38F708BBB8BB3C6
S11305C0862B8BBB88B38F7088BB88B3862B88BB84
S11305D085B38F7085BB85B3862B85BB82B38F7043
S11305E082BB82B3682B62BB089581E460E041E082
S11305F00E94490081E461E041E00E94490081E4F5
S113060062E041E00E94490081E463E041E00E942D
S1130610490081E464E040E00E94490081E465E02F
S113062040E00E94490081E466E040E00E94490005
S113063081E467E040E00E94490081E464E041E035
S11306400E94250281E465E041E00E94250281E4E4
S113065066E041E00E94250281E467E041E00E94F7
S1130660250208950F931F93CF93DF93CDB7DEB781
S113067060970FB6F894DEBF0FBECDBFDE011196B2
S1130680E0E6F0E080E101900D928150E1F700E0B6
S113069081E460E041E00E94CC0081E461E041E05B
S11306A00E94CC0081E462E041E00E94CC0081E43D
S11306B063E041E00E94CC0081E4602F40E00E94AE
S11306C0CC0010E0612F6C5F81E40E944F0188230D
S11306D061F4E02FF0E0EE0FFF1FEE0FFF1FE10FBC
S11306E0F11DEC0FFD1F818104C01F5F143051F711
S11306F00BC060960FB6F894DEBF0FBECDBFDF917E
S1130700CF911F910F9108950F5F043009F68FEF79
S1130710F0CF82E462E041E00E94CC008FE99FE0E8
S11307200197F1F700C0000082E462E040E00E941B
S1130730CC008FE99FE00197F1F700C00000089515
S1130740CF93C82F682F62956F7082E40E94CE0207
S113075082E460E040E00E94CC000E94890382E4CD
S11307606C2F0E94CE0282E460E040E00E94CC0044
S11307700E9489038FEC97E00197F1F700C0000015
S1130780CF9108958FEF91EEA4E081509040A04066
S1130790E1F700C0000082E464E041E00E94490007
S11307A082E465E041E00E94490082E466E041E0C1
S11307B00E94490082E467E041E00E94490082E42B
S11307C062E041E00E94490082E461E041E00E946D
S11307D0490082E460E041E00E94490082E461E073
S11307E040E00E94CC0082E00E94A003AFE1BEE49E
S11307F01197F1F700C0000088E20E94A0038FEC7B
S113080097E00197F1F700C000008EE00E94A0037A
S1130810AFECB7E01197F1F700C0000081E00E944F
S1130820A0038FE19EE40197F1F700C0000086E089
S11308300E94A003AFECB7E01197F1F700C00000ED
S11308400895CF93C82F682F62956F7082E40E9439
S1130850CE0282E460E041E00E94CC000E94890361
S113086082E46C2F0E94CE0282E460E041E00E94A8
S1130870CC000E9489038FEC97E00197F1F700C048
S11308800000CF910895CF93DF93EC0188818823F2
S113089031F021960E94210489918823D9F7DF91B0
S11308A0CF91089581E00E94A0038FE19EE4019717
S11308B0F1F700C000000895282F2150223070F471
S11308C0613170F4662371F0813019F4962F9158D8
S11308D00AC0823041F4962F915405C090E803C0B9
S11308E090E801C090E8892F0E94A0038FEC97E064
S11308F00197F1F700C0000008952F923F925F9294
S11309006F927F928F929F92AF92BF92CF92DF921B
S1130910EF92FF920F931F93CF93DF93CDB7DEB780
S113092064970FB6F894DEBF0FBECDBF0E94C2031A
S113093080E790E00E9443048FEF94E3ACE08150A1
S11309409040A040E1F700C000000E9452040E94C1
S1130950A705DE011196E5EAF0E085E001900D922D
S11309608150E1F7DE011696EAEAF0E085E00190B5
S11309700D928150E1F7DE011B96EFEAF0E085E08D
S113098001900D928150E1F7DE015096E4EBF0E026
S113099085E001900D928150E1F70F2EFBE08F2E40
S11309A09924F02D8C0E9D1E0F2EF6E0AF2EBB2445
S11309B0F02DAC0EBD1E0F2EFAE0EF2EFF24F02D0D
S11309C0EC0EFD1ECC24DD246894C4F8CC0EDD1E90
S11309D0350155240F2EFFE82F2EF0E03F2EF02D89
S11309E00E945204D4018D914D010E94210481E0A2
S11309F063E00E945C048BE20E94210481E065E0D4
S1130A000E945C048FE30E94210481E067E00E945D
S1130A105C048DE30E94210481E069E00E945C048F
S1130A20F50182915F010E9421040E94F502009168
S1130A30BA001091BB000E943203282F30E0D70186
S1130A408C9190E0F6014081841B91092F3F310580
S1130A5099F4F1E0043F1F0754F30E94520482E02A
S1130A6063E00E945C048BE790E00E9443041092D0
S1130A70BB001092BA0019C0C0968217930761F4A4
S1130A800E94520482E063E00E945C0485E890E0E6
S1130A900E944304539409C00E94520482E063E01C
S1130AA00E945C04C1010E9443048FEF94E3ACE014
S1130AB081509040A040E1F700C000000894E10894
S1130AC0F1080894C11CD11CE614F70409F088CF7E
S1130AD00E9452048CE990E00E94430481E069E0A2
S1130AE00E945C04852D805D0E94210480E090E0DA
S1130AF064960FB6F894DEBF0FBECDBFDF91CF91E1
S1130B001F910F91FF90EF90DF90CF90BF90AF9027
S1130B109F908F907F906F905F903F902F9008955B
S1130B201F920F920FB60F9211248F939F9380916F
S1130B30BA009091BB0001969093BB008093BA00D9
S1130B409F918F910F900FBE0F901F90189583B7B0
S1130B50886083BF8EE48CBF83B7816083BF83B713
S1130B60846083BF789489B7826089BF0895BB9AF3
S1130B7083B7886083BF80E48CBF83B7816083BF01
S1130B8083B7846083BF83B7806183BF0895BB9AB2
S1130B9083B7806483BF83B7886083BF8FEF8CBFC4
S1130BA083B7826083BF83B7806283BF0895BB9A93
S1130BB083B7806483BF80E48CBF83B7816083BFC5
S1130BC083B7846083BF83B7806183BF83B7806248
S10B0BD083BF0895F894FFCFE0
S1130BD83738392F3435362A3132332D41303D2BCD
S1130BE868656C6C6F206B6964730054696D65206B
S1130BF84F7665720057656C6C20446F6E650057BC
S1130C08726F6E6720416E737765720073636F72DB
S1130C1865203D200038363537390806050709317F
S10D0C2833323435010302040500E1
S9030000FC
